:020000040800F2
:10000000004002207D040008CD040008CD04000853
:1000100000000000000000000000000000000000E0
:10002000000000000000000000000000CD040008F7
:100030000000000000000000CD040008CD0400080E
:10004000CD040008CD040008CD040008CD0400084C
:10005000CD040008CD040008CD040008CD0400083C
:1000600079040008CD040008CD040008CD04000880
:10007000CD040008CD040008CD040008AD0300083D
:10008000CD040008CD040008CD040008CD0400080C
:10009000CD040008CD040008CD040008CD040008FC
:1000A000CD040008CD040008CD040008CD040008EC
:0C00B000CD040008CD040008CD040008B9
:1000BC0030B50124314A83B0536BFC202343536386
:1000CC00A023DB0519682E4D01431960D9688143C3
:1000DC00D9601968294019608021D8680902284024
:1000EC000143D9600521936B264823439363264B28
:1000FC0019600021254B196098602548D8600320B1
:10010C005860244818608023106C5B03034313640D
:10011C008022214B52059A60A0220191019BD200B2
:10012C00934206D2C046019B01330193019B93423B
:10013C00F8D38022184B120699680A439A609A6881
:10014C00002AFCDB802212061A6107228D215A61DB
:10015C0007329A621A690A431A61104A8C39DA60BA
:10016C009A680A439A600C4A13681942FCD004211D
:10017C0093680B43936003B030BDC046001002403F
:10018C00FF3FFFFF402401400008024008000240EE
:10019C000C000020A10500000024014003200000F9
:1001AC0070B51C4D1C4B2A689A4230D10122012497
:1001BC001A481B4E524208212B785A4023001340F8
:1001CC005B420340520801395A400029F6D10135EF
:1001DC00B542F0D1D2430F4B1969914217D180210E
:1001EC005A6849028A4212D899680E4881420ED840
:1001FC000D48DB681C1896200002844207D80B4877
:10020C0002600B4A002011600A4A136000E00220D1
:10021C0070BDC04600F00108315253442083B8ED44
:10022C0010F001089A19000000CEFFFF0800002012
:10023C0004000020000000207047C0467047C046F4
:10024C008023264A5B00116810B50B438021136094
:10025C00C90013680B42FCD0214BD360802311687A
:10026C005B040B43136080221C4992040B681342FD
:10027C00FCD007211B4A1C4B136013680B40022B4C
:10028C00FBD1164A906888433821034393609368E6
:10029C000B40102BFBD1936814490B40936093686F
:1002AC0013490B409360FFF77BFF0400FFF700FF3F
:1002BC0000F020F800F0D2F8200000F0D1F862B67F
:1002CC0000F0D2F800F0CEF80028F9D030BF00F0E2
:1002DC00CBF800F0C7F80028F2D0F7E70010024086
:1002EC00020800300020024002030000FFF0FFFF74
:1002FC00FF8FFFFF0122244930B54B6B03241343BE
:10030C004B63A0230F25DB051868A043013C204359
:10031C001860186AA843104318621D681B480540F2
:10032C0080208001284318601D6A194805408020F0
:10033C00400428431862CB6B01251343CB63802305
:10034C000020DB056D429862DD629A611A62DC6006
:10035C0018611A60CB6B2343CB630E4B0E4998622A
:10036C00D962682199611A62802212015A63812232
:10037C00C3211A60094A890053581B021B0A5350A7
:10038C0080231B02136030BD00100240FFCFFFFF23
:10039C00FFFFFFF000040040FF0F000000E100E051
:1003AC008020C005416B234BF0B51A681960C82337
:1003BC008A1A5B019A4237D31F4B20491C68204B89
:1003CC001868204B1E680B68951B5B190B600F6837
:1003DC001D4B9F4200DD0B600F681C4B9F4200DAE7
:1003EC000B6080230F686C43784324141B010014AA
:1003FC001B1B1B1A1648834214DC642B10DB15489C
:10040C00436315489BB20260466085600A6802210E
:10041C00C26080220382D20513698B431361F0BD45
:10042C006423ECE70300EAE70222036993430361C8
:10043C00F5E7C0462C000020080000202800002012
:10044C000400002000000020008813000078ECFF5E
:10045C009B0F000000040040140000207047C046B1
:10046C007047C046012070477047C0467047C04671
:10047C000D488546FFF7E0FE0C480D490D4A002358
:10048C0002E0D458C4500433C4188C42F9D30A4A3D
:10049C000A4C002301E013600432A242FBD300F0AB
:1004AC0011F8FFF7CDFEFEE700400220000000200F
:1004BC000C000020180500080C0000203000002063
:1004CC00FEE7000070B50D4B0D4D5E1BB610AB4238
:1004DC0005D0002408CD01349847A642FAD8FFF77E
:1004EC00ADFE084B084D5E1BB610AB4205D0002488
:1004FC0008CD01349847A642FAD870BD18050008FB
:0C050C0018050008180500081805000874
:0C051800006400000C02000066260000D9
:040000050800047D6E
:00000001FF
